:020000040800F2
:1000000088240024E50200081B3800085B3700083C
:1000100019380008FB0300081D5900080000000003
:100020000000000000000000000000004B47000836
:10003000FD0300080000000097390008574700083A
:10004000FF020008FF020008FF020008FF0200088C
:10005000FF020008FF020008FF020008FF0200087C
:10006000FF020008FF020008FF020008FF0200086C
:10007000FF020008FF020008FF020008FF0200085C
:10008000FF020008FF020008FF020008FF0200084C
:10009000FF020008FF020008FF020008FF0200083C
:1000A000FF020008FF020008FF020008FF0200082C
:1000B000FF020008FF020008FF020008FF0200081C
:1000C000FF020008FF020008FF020008FF0200080C
:1000D000FF020008FF020008FF020008FF020008FC
:1000E000FF020008FF02000800000000FF020008F5
:1000F000FF020008FF020008FF020008FF020008DC
:10010000FF020008D93B0008FF020008FF020008B8
:10011000FF020008FF020008FF020008FF020008BB
:10012000FF020008FF020008FF020008FF020008AB
:10013000FF020008FF020008FF020008FF0200089B
:1001400000000000000000000000000000000000AF
:10015000FF020008FF020008FF020008FF0200087B
:10016000FF020008FF020008FF020008FF0200086B
:10017000FF0200081D380008FF0200080000000010
:10018000FF020008FF020008FF020008FF0200084B
:10019000FF020008FF020008FF020008FF0200083B
:1001A000FF020008FF020008FF0200080000000034
:1001B000FF020008FF020008FF020008FF0200081B
:1001C000FF020008FF02000800000000000000001D
:1001D0000000000000000000FF0200080000000016
:1001E000000000000000000000000000000000000F
:1001F0000000000000000000FF020008FF020008ED
:10020000FF020008FF02000800000000FF020008D3
:10021000FF020008FF020008FF020008FF020008BA
:10022000FF02000800000000FF02000800000000BC
:10023000FF020008FF02000800000000FF020008A3
:10024000FF020008FF020008FF020008FF0200088A
:10025000FF020008FF020008FF020008FF0200087A
:10026000FF020008FF020008FF020008FF0200086A
:10027000FF020008FF020008FF0200080000000063
:10028000FF020008FF020008FF020008FF0200084A
:1002900000000000FF020008FF020008000000004C
:1002A00000000000FF020008FF020008FF02000833
:1002B000FF020008FF020008FF020008FF0200081A
:1002C000FF020008FF020008FF020008DFF810D05C
:1002D00000F02CF800480047196A0008AFF30080CE
:1002E000882400240648804706480047FEE7FEE7CA
:1002F000FEE7FEE7FEE7FEE7FEE7FEE7FEE7FEE7D6
:10030000F9470008CD020008D2B201E000F8012B45
:10031000491EFBD270470022F6E710B513460A4685
:1003200004461946FFF7F0FF204610BD064C074D66
:1003300006E0E06840F0010394E8070098471034B5
:10034000AC42F6D3FFF7C6FF906F0008B06F00080D
:100350000146014802F068BD940C0024044810B521
:1003600002F074FD042801D0012010BD002010BD52
:10037000940C002410B500F015F8012801D00220DB
:1003800010BD074802F0FEFE040006D104484FF4F9
:10039000804102F0A5FB00B10124204610BD000001
:1003A000940C002408B501208DF800009DF8000091
:1003B00008BD000038B50024009313460A460146E4
:1003C000034802F0DFFF00B10124204638BD0000E1
:1003D000940C00247047000038B5002400931346A5
:1003E0000A460146034803F0B7F800B1012420464D
:1003F00038BD0000940C00247047FEE7704772B6C9
:10040000FEE70022AFF300800E4B70B505465C7A24
:100410000120002C14D15E7A03F108009C555E7A0D
:1004200003EB860675605D7A2A54587A421C5A722C
:100430003A232F22303008704B7020468A70CC70DF
:1004400070BD000078140024C90710B50BD0064910
:100450008424CB6844EA002423F4E660C860C868BA
:1004600010432043C86010BD00200052C9070BD0C4
:100470000649CA6822F03002CA60CA680243CA60EC
:10048000C86840F08800C860704700000020005233
:100490002DE9F047042789460024054600F024FA98
:1004A000164E804608E0681C06D000F01DFAA0EB4E
:1004B0000800A84208D83DB1306937EA0000F2D000
:1004C000B9F1010F03D005E00320BDE8F0870C4827
:1004D00034690440600006D00A4881692143816183
:1004E00074610120F1E7B9F1010F05D13069C00352
:1004F00002D54FF4803070610020E6E70020005202
:100500000000EE173C14002470B5044600F0ECF92E
:100510000546601C02D004480078044400F0E4F969
:10052000401BA042FAD370BD100000242DE9F05FFB
:1005300004462D480F460026017D012911D00122D5
:1005400002758046B146C0F818904CF2503A2079B6
:10055000C00709D001215046FFF79AFF20B10126BC
:100560003DE00220BDE8F09F2068204D012807D023
:100570004FF0FF303860AA46A56840F2047B29E0BE
:1005800061682069FFF772FF2079C00727D0012139
:100590005046FFF77DFF00B10126E86820F0080013
:1005A000E8601CE0226928466168FFF74DFF20796A
:1005B000C0070ED001214CF25030FFF769FFDAF886
:1005C0000C20060022EA0B02CAF80C2001D03D6084
:1005D00005E06D1CD4E902100844A842E2D8304678
:1005E00088F81490BEE700003C140024002000525C
:1005F0000548C16841F00101C160C068C00701D071
:100600000020704701207047002000522DE9F05F64
:10061000214D08260F461446287D012813D00120BD
:100620002875A7F10061B1F5801F0FD24FF00009C6
:100630008246C5F818904CF2503B51465846FFF799
:1006400027FF28B124E00220BDE8F09F0120FBE74E
:10065000DFF84880D8F80C1041F00201C8F80C10FF
:10066000BFF36F8FBFF34F8F01CC761E16F0FF06DE
:1006700001C7F9D1BFF36F8FBFF34F8F5146584673
:10068000FFF706FFD8F80C2022F00202C8F80C2071
:1006900085F81490D8E700003C1400240020005294
:1006A0000748C168C90708D00649074A4160426047
:1006B000C068C00701D001207047002070470000CB
:1006C0000020005223016745AB89EFCD2DE9F84F9B
:1006D00003247A4D00234FF001094FF0B04B4FF047
:1006E0000F0AE4E009FA03F6324078D00F7907F0F8
:1006F0000307012F01D0022F1AD187684FEA430E5A
:10070000D1F80CC004FA0EF827EA08070CFA0EFC20
:100710004CEA070CC0F808C0476891F804C0B7431A
:10072000CCF3001C0CFA03FC4CEA070CC0F804C024
:100730000E79F643B6070BD0C6684FEA43088F68B8
:1007400004FA08FC26EA0C0607FA08F73743C760E4
:100750000E7906F00306022E12D1DE080F694FEA69
:10076000437C00EB8606B646366A4FEADC6C0AFA32
:100770000CF807FA0CF726EA08063743CEF8207083
:100780000F7906684FEA430807F0030704FA08FCEC
:1007900007FA08F726EA0C06374307604E6816F496
:1007A000403F1CD0464E376847F002073760366836
:1007B0009F0706F00206009623F0030606F1B046F6
:1007C000B6463F0FD6F80864DFF8F8800AFA07FC4F
:1007D000404526EA0C0603D14FF0000C3AE065E0F4
:1007E000DFF8E4C0604502D14FF0010C32E0DFF8E1
:1007F000DCC0604502D14FF0020C2BE0DFF8D0C026
:10080000604502D14FF0030C24E0DFF8C8C060451A
:1008100002D14FF0040C1DE0DFF8BCC0604502D1EE
:100820004FF0050C16E0DFF8B4C0604502D14FF080
:10083000060C0FE0DFF8A8C0604502D14FF0070CAE
:1008400008E0DFF8A0C0604502D14FF0090C01E0DC
:100850004FF00A0C0CFA07FC4CEA060CCEF808C460
:100860004F68DBF80060FF0226EA020600D5164357
:100870005F46CBF80060D1F804C0DBF804605FEAA3
:100880008C2C26EA020600D516437E606E684F68FF
:1008900026EA0206BF0300D516436E602E684F6835
:1008A00026EA0206FF0300D516432E605B1C0A6889
:1008B00032FA03F67FF416AFBDE8F88F80000058D7
:1008C000F44402580000025800040258000802587C
:1008D000000C025800100258001402580018025868
:1008E000001C02580024025801488068704700002C
:1008F000100000240248816802781144816070472A
:1009000010000024032010B500F0D4F801F0DEFD43
:100910000F4A104914681368C4F3032203F00F034D
:100920008A5CC95C02F01F0201F01F01D0400A4A34
:1009300020FA01F11160094908600F2000F010F859
:1009400008B1012010BD00F079F8002010BD0000B2
:1009500018440258CE6E0008200000241C00002419
:1009600070B50D4D04462878A0B14FF47A71B1FBF3
:10097000F0F00A490968B1FBF0F002F0DBFE48B97B
:10098000102C07D200222146501E00F073F80020E0
:100990006C6070BD012070BD100000241C0000249C
:1009A000F0B5154C4378211D0A1D23600378F3B17F
:1009B00043680B60057BC67A817A437B2D07847B75
:1009C00045EA0665C77B90F809C0067A90F800E012
:1009D00045EAC14040EA834040EA444040EA0740DB
:1009E00040EA0C2040EA460040EA0E0001E0002008
:1009F00008601060F0BD000098ED00E0BFF35F8F6D
:100A0000044800210368034A23F4803303607032F2
:100A10001160704724ED00E0074A40F001000649EC
:100A200070321060086840F480300860BFF34F8F68
:100A3000BFF36F8F7047000024ED00E0054808B554
:100A4000016841F002010160006800F002000090BE
:100A500008BD0000F4440258002809DB410900F0F9
:100A60001F028900012001F1E0219040C1F800013E
:100A7000704700000E4BF0B41B680D46C3F3022311
:100A8000C3F10706042E00D90426191D072901D237
:100A9000002300E0DB1E012404FA06F19C40491EFD
:100AA0002940641E994014402143F0BC04F037BF34
:100AB0000CED00E0064900F0070210B54FF6FF0408
:100AC0000868044B204040EA02201843086010BD2B
:100AD0000CED00E00000FA057047D0F8080504F0BE
:100AE00063B801EBC10200EB8202D0F80805D26CBA
:100AF00003F0B6BF01EBC10200EB8202D0F808059B
:100B0000D2F88C2204F008B8D0F8080504F04EB8EA
:100B10000A0601F00F0101EBC10100EB810101D5D3
:100B20003C3101E001F51F71006804F091BD70B522
:100B30004268044601F00F00904201D9012070BDC7
:100B400001F00F024FF000050B0602EBC2014FF05F
:100B5000010204EB810103D581F83D203C3103E023
:100B600081F87D5201F51F718D70087094F8BC04F6
:100B7000012808D084F8BC24206804F01DFC002063
:100B800084F8BC5470BD022070BD2DE9F04101F025
:100B90000F0604460D064FF0010006EBC6014FF0AC
:100BA000000504EB810103D581F83D003C3103E0F1
:100BB00081F87D5201F51F714F78CA600B710E707C
:100BC00007B10E81022B00D14D7194F8BC24012A8B
:100BD00009D084F8BC04206804F0E4FA284684F8BC
:100BE000BC54BDE8F0810220FBE770B501F00F05B1
:100BF0000C46002605EBC50100EB8101C1F89C62A3
:100C0000C1F89432C1F88C2281F87D6281F87C525F
:100C100001F51F710369012B00D14A612207027C93
:100C2000006803D004F020FC002070BD04F008FB35
:100C3000FAE770B50D464168044605F00F0088429A
:100C400001D9012070BD29064FF000064FF00102C6
:100C500007D500EBC00104EB810181F83D203C3158
:100C600007E005EBC50104EB810181F87D6201F528
:100C70001F718A70087094F8BC04012807D084F8AA
:100C8000BC24206804F0C4FB280702D007E002203F
:100C900070BD217C04F2C442206804F061FB002096
:100CA00084F8BC6470BD2DE9F04101F00F050C46DD
:100CB000002605EBC501012700EB8101CE654B65E0
:100CC000CA6481F83D7001F83C5F0369012B00D1D3
:100CD0004A612207027C006804D004F0C5FB0020B2
:100CE000BDE8F08104F0ACFAF9E700002DE9FC5F03
:100CF00005680446284604F028FD00287ED12068B7
:100D000004F04FFD002879D0D5F80808C0F30D2075
:100D1000C4F8FC04206804F044FD800704D5206872
:100D2000416901F002014161206804F03AFDC10609
:100D300004F2C440009034D52068816921F010018C
:100D400081612F6A07F00F01C7F3434001EBC10136
:100D5000022804EB810606F51F7602D0062811D082
:100D60001AE047F6F070074216D0C7F30A1231694D
:100D70001746284604F019FD3169306A394431615B
:100D8000384408E000990822284604F00EFD306A35
:100D9000C7F30A11084430622068816941F01001EC
:100DA0008161206804F0FDFC00034FF0000A4FF061
:100DB000020B4FF001097CD52068002604F0D0FC1E
:100DC000074674E0F80770D02068F1B204F0E1FC47
:100DD0008046C00707D005EB4611C1F8089B314695
:100DE000204602F021FD5FEA087025D505EB46118B
:100DF0000820C1F8080BFC49206800E042E2026CC0
:100E000000EB461001928A42D0F8081B05D909046C
:100E100003D54FF40041C0F8081B204600F06EFADD
:100E2000F1490198884207D92069012804D1206836
:100E30000121009A04F094FA5FEAC86004D505EB3A
:100E400046111020C1F8080B5FEA88701CD568694C
:100E5000000605D5D5F8040840F48061C5F80418EB
:100E600006EBC60004EB800090F87F1200F51F70BF
:100E7000012905D180F803A02046F1B200F008FA5C
:100E800005EB4611C1F808BB5FEA886004D505EBA5
:100E900046112020C1F8080B5FEA884005D505EB14
:100EA00046114FF40050C1F8080B7F08761C002F44
:100EB00088D1206804F075FC40036FD5206804F0E9
:100EC00048FC0026074667E0F80763D02068F1B2C7
:100ED00004F04DFC8046C00723D0D5F8342806F036
:100EE0000F0C05EB461309FA0CF08243C5F83428C1
:100EF000C3F80899206901280FD106EBC60004EB5E
:100F00008000D0E912121144C16436B9606D20B975
:100F100020680121009A04F023FA2046F1B2FFF77D
:100F2000E0FD5FEA087004D505EB46110820C1F822
:100F300008095FEAC86004D505EB46111020C1F826
:100F400008095FEA486004D505EB46114020C1F866
:100F500008095FEA887016D53146284604F0C8FBB8
:100F600006EBC60004EB800090F83F103C300129EE
:100F700005D180F803A02046F1B200F085F905EB19
:100F80004611C1F808B95FEA086003D5314620462A
:100F900002F0B0FC7F08761C002F95D1206804F089
:100FA00000FC002811DAD5F8040820F00101C5F88A
:100FB000041894F8F40401283BD0204600F082F98C
:100FC0002068416901F000414161206804F0E9FBBB
:100FD00000050BD5D5F80808C00702D0204600F060
:100FE00095F92068416901F400614161206804F0CD
:100FF000D8FB00010AD52068416901F00061416118
:1010000094F8F404E0B1204600F080F9206804F080
:10101000C8FBC00472D5D5F8040820F00101C5F85A
:1010200004182068102104F063FB00214FF67F3282
:101030002DE00021204684F8F4A4FFF74DFDBFE722
:1010400084F8F4942068406D0121C0F38300C4F853
:10105000F8042046FFF740FDD8E700BF05EB41103C
:10106000C0F80829D0F8003923F40013C0F800397B
:10107000C0F8082BD0F8003B23F40013C0F8003B65
:10108000D0F8003B43F00063C0F8003B491C6068A7
:101090008842E3D8D5F81C0840F00111C5F81C18A7
:1010A000206B68B1D5F8840840F00B01C5F88418AE
:1010B000D5F8440840F00B012846C5F844180DE067
:1010C000D5F8140842F22B010843C5F81408D5F8E6
:1010D000100840F00B012846C5F81018D0F8000899
:1010E00020F4FE61C5F80018217C2068009A04F005
:1010F00037F92068416901F480514161206804F0AA
:1011000050FB800417D5206804F08CF8206804F0A8
:101110000FFBE06001F0B8F9217B2368CAB20146F9
:10112000184604F073FB204600F0B6F820684169C9
:1011300001F400514161206804F033FB000707D53A
:10114000204600F0C3F82068416901F008014161C0
:10115000206804F026FB000616D5A869012620F0B9
:101160008001A9610DE000BF06EBC60004EB800022
:1011700090F87F02012803D12046F1B2FFF7C8FCA6
:10118000761C6068B042EFD8206804F00AFBC00209
:1011900021D501264F4616E006EBC60105EB4610A9
:1011A00004EB8101D0F8000991F84020012A09D10F
:1011B000002807DAF0B281F83F7040F08001204645
:1011C000FFF7A6FC761C6068B042E5D8206841694C
:1011D00001F480114161206804F0E3FA800234D503
:1011E00001204B4629E000000A30544F00EBC002BA
:1011F00005EB401104EB8202D1F8001B92F88062EB
:10120000012E19D1002917DA94F8FC6401F4803119
:1012100006F00106B1420FD182F87F32A96941F090
:101220008002AA616969090606D4D5F8040840F469
:101230000070C5F8040803E0401C61688142D5D8FD
:101240002068416901F400114161206804F0A9FAA5
:10125000400007D52046FFF740FC2068416901F0B7
:1012600080414161206804F09CFA40070AD520685B
:101270004568680702D52046FFF746FC20684168AC
:1012800029434160BDE8FC9FD0F8080503F0AEBCDF
:10129000D0F8080503F0BEBC70B50446C06801254F
:1012A00070B1022801D0FFF7AAF8D4F80805294642
:1012B00003F01FFDD4F80805BDE8704003F0D3BC6F
:1012C0000025F2E7D0F8080503F0FCBCD0F80805CB
:1012D00003F002BD10B5044690F8BC0401280BD001
:1012E000012084F8381084F8BC04206804F07DFAEA
:1012F000002084F8BC0410BD022010BDD0F80825E1
:1013000000F2C441104603F000BD000010B50446D1
:10131000D0F8080503F032FD2068D0F8001E41F037
:101320000101C0F8001E206A002804D002480168AC
:1013300041F00601016010BD10ED00E0134970B5E9
:101340000A68D243520705D5096801F007018142B6
:1013500013D118E00A6822F0070202430A60FFF77F
:10136000C3FA0A4D4FF47A760446083D07E000BF01
:10137000FFF7BAFA001BB04201D9012070BD2868FE
:10138000C0438004F4D4002070BD00000C48025813
:1013900010B501F079F805490968054AC1F3021151
:1013A000515C01F01F01C84010BD000020440258EC
:1013B000CE6E00084A4930B5494C0B1D0A680C3402
:1013C00009681D68246802F0030305F00102C1F3F7
:1013D0000511C4F3CC04002914FB02F200EE102A1C
:1013E000F8EE400A76D0414A9FED3E1ADFED3E1AF4
:1013F000B7EE000A23B1012B5AD0022B18D15CE0C2
:10140000374C283C23689B0612D5394B246801EEE3
:10141000901A1168C4F3C104F8EE612AE34001EEAA
:10142000903AC1F30801F8EE611A81EEA22A07E0B2
:1014300002EE101A1168F8EE422A81EEA22A45E067
:1014400001EE901A1168F8EE611A40EE811A71EE01
:10145000800A62EE200AC1F3462101EE101AB8EEAE
:10146000411A31EE001AC0EE811ABCEEE11A80ED8D
:10147000001A1168C1F3064101EE101AB8EE411AC4
:1014800031EE001AC0EE811ABCEEE11A80ED011AAD
:101490001168C1F3066101EE101AB8EE411A31EE7F
:1014A000000A80EE801ABCEEC10A80ED020A30BD4F
:1014B00001EE901ADFED0F2A03E001EE901ADFED46
:1014C0000E2A1168F8EE611A82EEA12AC1F3080112
:1014D000B6E7FFE7002101604160816030BD000098
:1014E00028440258000000390024744C304402584B
:1014F0000090D0030024744A20BCBE4B494930B54B
:10150000484C0B1D0A68143409681D68246802F0F1
:101510000303C5F30012C1F30531C4F3CC04002961
:1015200014FB02F200EE102AF8EE400A75D03F4A92
:101530009FED3D1AB7EE000A6BB1DFED3D1A012BAE
:1015400001D0022B64D002EE101A1168F8EE422A84
:1015500081EEA22A21E0334C283C23689B0612D559
:10156000344B246801EE901A1168C4F3C104F8EEFC
:10157000612AE34001EE903AC1F30801F8EE611AE6
:1015800081EEA22A0BE001EE901ADFED2B2A00BFBC
:10159000F8EE611A116882EEA12AC1F3080101EE8A
:1015A000901A1168F8EE611A40EE811A71EE800A05
:1015B00062EE200AC1F3462101EE101AB8EE411A7C
:1015C00031EE001AC0EE811ABCEEE11A80ED001A6D
:1015D0001168C1F3064101EE101AB8EE411A31EE5E
:1015E000001AC0EE811ABCEEE11A80ED011A1168F2
:1015F000C1F3066101EE101AB8EE411A31EE000A8D
:1016000080EE801ABCEEC10A80ED020A30BD04E013
:1016100001EE901ADFED092ABAE70021016041606E
:101620008160F3E72844025800000039384402582A
:101630000024744A0090D0030024744C20BCBE4B9C
:10164000494930B5484C0B1D0A681C3409681D68AF
:10165000246802F00303C5F30022C1F30551C4F36B
:10166000CC04002914FB02F200EE102AF8EE400A26
:1016700075D03F4A9FED3D1AB7EE000A6BB1DFED22
:101680003D1A012B01D0022B64D002EE101A116812
:10169000F8EE422A81EEA22A21E0334C283C23684E
:1016A0009B0612D5344B246801EE901A1168C4F3DE
:1016B000C104F8EE612AE34001EE903AC1F308015B
:1016C000F8EE611A81EEA22A0BE001EE901ADFED2E
:1016D0002B2A00BFF8EE611A116882EEA12AC1F32D
:1016E000080101EE901A1168F8EE611A40EE811AB5
:1016F00071EE800A62EE200AC1F3462101EE101A53
:10170000B8EE411A31EE001AC0EE811ABCEEE11AB1
:1017100080ED001A1168C1F3064101EE101AB8EE0F
:10172000411A31EE001AC0EE811ABCEEE11A80EDCA
:10173000011A1168C1F3066101EE101AB8EE411AE0
:1017400031EE000A80EE801ABCEEC10A80ED020A7A
:1017500030BD04E001EE901ADFED092ABAE700215E
:10176000016041608160F3E72844025800000039BD
:10177000404402580024744A0090D0030024744C62
:1017800020BCBE4B2DE9F04F894AB0F5807FDFF8D1
:101790001C9289B0874B4FF08056DFF81CC2A9F12C
:1017A000040586494FEA22144FF000571AD0DFF89B
:1017B0001082B0F5806F44D0B0F5006F55D04FF473
:1017C000805A50454FF4804B6DD1D9F8000000F499
:1017D000E040B0F5005F62D05BDC002878D0504577
:1017E0002BD189E0D9F8000000F00700052824D2A9
:1017F000DFE800F0D7825525790003A8FFF7DAFD6E
:10180000049809B0BDE8F08F6846FFF777FE0098AE
:10181000F7E706A8FFF714FF0698F2E70868C0F399
:10182000C10022FA00F0ECE70A68D20571D5B04297
:101830006FD12046E5E71846E3E70020E1E7604680
:10184000DFE7D8F8000000F46000B0F5800F26D084
:1018500004DCE8B3B0F5001FEFD14DE0B0F5C00FE8
:10186000EDD0B0F5000FE8D13DE0D8F8000000F071
:10187000E060B0F1007F12D004DC48B3B0F1807FAB
:10188000DBD139E0B0F1407FD9D0B0F1806FD4D155
:1018900029E0B0F5405FD2D05845CED123E00868AA
:1018A0008000CAD5B5E7B0F5002F4FF4803C10D0CA
:1018B000604534D1286810F4803072D06045BCD1C6
:1018C00008680001B9D56846FFF718FE029898E746
:1018D00067E0D8F8000010F440300DD060450FD01C
:1018E000B0F5003FA9D128680D6800F040506D07A1
:1018F0009AD5002898D191E7086800019DD583E723
:101900000868800099D506A8FFF79AFE089878E73E
:10191000FFE70968890390D5B8428ED18BE7584517
:101920002BD1D8F8000000F0E040B0F1405F1CD0AF
:101930000CDC90B1B0422CD0B8428DD10868800048
:10194000AFD506A8FFF77CFE07985AE7B0F1804FA5
:101950000FD0B0F1A04F86D11FE0FFF719FD50E77F
:101960006846FFF7CBFD01984BE70868400798D51C
:1019700054E70868C00594D55BE7B0F5004F86D101
:10198000D9F8000010F0405007D0B04209D0B8425A
:1019900095D108680001E3D44FE708688003FBD5C0
:1019A00049E708688001F7D527E70000504402584E
:1019B0000090D00340787D010080BB0000440258B5
:1019C000584402582DE9FC5F0446FC4F50F8241B94
:1019D0000025DFF8ECA32E46009008011DD5206EEF
:1019E00050B1B0F5801F0CD0B0F5001F0ED0B0F58F
:1019F000401F1DD001250FE0386840F400303860EA
:101A000016E00221201D01F0C7FF03E0009802212B
:101A100002F052F805000BD02E462088C00523D5D1
:101A2000606D05281ED2DFE800F00C11161B1B00AC
:101A3000226EDAF8001021F440111143CAF80010A8
:101A4000EBE7386840F40030386009E00021201DE1
:101A500001F0A2FF03E00098002102F02DF80546F6
:101A6000BDB100E001252E462088DFF854834005F3
:101A700008F108082FD5D4F8A000B0F5C00F28D081
:101A800010DCB8B1B0F5001F19D0B0F5800F0FD140
:101A90001AE0626DDAF8001021F007011143CAF86C
:101AA0000010E1E7B0F5000F13D0B0F5200F10D013
:101AB00001250FE0386840F40030386009E000216B
:101AC000201D01F069FF03E00098002101F0F4FF00
:101AD00005468DB12E462088000530D5D4F8A400E7
:101AE000B0F1407F29D011DCC0B1B0F1807F1AD0B5
:101AF000B0F1007F10D11BE0D4F8A020D8F800107E
:101B000021F460011143C8F80010E4E7B0F1806FE0
:101B100013D0B0F1A06F10D001250FE0386840F469
:101B20000030386009E00021201D01F035FF03E09E
:101B30000098002101F0C0FF05468DB12E462068B7
:101B4000DFF87CB28001ABF1040B1FD5A06CD8B1DB
:101B500010280FD0202812D0302815D0012514E0ED
:101B6000D4F8A420D8F8001021F0E0611143C8F89F
:101B70000010E4E7386840F40030386004E00221E7
:101B8000201D01F009FF05466DB12E462088C004D6
:101B90002BD5A06DB0F5005F20D00DDCA0B1B0F565
:101BA000805F0FD115E0A26CDBF8001021F030014E
:101BB0001143CBF80010E9E7B0F5405F13D0B0F562
:101BC000804F10D001250FE0386840F400303860B5
:101BD00009E00021201D01F0DFFE03E00098002154
:101BE00001F06AFF054685B12E462088800429D57C
:101BF000E06DB0F5403F23D010DC08B3B0F5803F76
:101C000014D0B0F5003F0FD115E0A26DDAF8001046
:101C100021F4E0411143CAF80010E6E7B0F5802F47
:101C20000ED0B0F5A02F0BD001250AE00121201D18
:101C300001F0B2FE03E00098012101F03DFF0546EE
:101C40008DB12E46208840042AD5D4F8A800B0F1E2
:101C5000405F23D010DC08B3B0F1805F14D0B0F146
:101C6000005F0FD115E0E26DDAF8001021F4E021F9
:101C70001143CAF80010E5E7B0F1804F0ED0B0F183
:101C8000A04F0BD001250AE00121201D01F084FEA8
:101C900003E00098012101F00FFF05466DB12E46CB
:101CA000208800041FD5A06ED8B1B0F1805F0ED09F
:101CB000B0F1005F10D0012514E0D4F8A820D8F8C6
:101CC000001021F0E0411143C8F80010E8E738683F
:101CD00040F40030386004E00121201D01F05CFE7A
:101CE00005466DB12E462068C0011ED5606CD0B18E
:101CF00001280ED0022811D0032814D0012513E0AA
:101D0000A26EDAF8001021F040511143CAF8001019
:101D1000E9E7386840F40030386004E00221201D13
:101D200001F03AFE054665B12E462068400257D5BF
:101D30002448016841F480710160FEF7D5FD8146B9
:101D40000EE0626CDBF8001021F003011143CBF8C8
:101D50000010EAE7FEF7C8FDA0EB090064283DD8B3
:101D600018480068C005F5D575BBDFF85490B4F885
:101D7000AC1009F12009D9F8000001F4407100F419
:101D80004070884211D0D9F80010D9F8002021F411
:101D9000407142F48032C9F80020D9F8002022F4C2
:101DA0008032C9F80020C9F80010D4F8AC00B0F5B2
:101DB000807F28D1FEF798FD019020E02C44025846
:101DC000504402580048025809E000BFFEF78CFD5D
:101DD0000199411A41F28830814210D903252E46DB
:101DE0002078DFF82494C0073DD0606F182838D0E1
:101DF00026DC80B3082829D0102825D12CE0D9F87A
:101E000000008007E2D5D4F8AC10C1F3012003280C
:101E1000FE480DD0016821F47C510160B4F8AC207B
:101E2000D9F80010C2F30B021143C9F80010D7E72C
:101E3000F74A036802EA111223F47C511143ECE7DC
:101E400020280ED028280CD001250BE00121201DD0
:101E500001F0A2FD04E004E00098012101F02CFE55
:101E600005465DB12E46207880071ED5206F0628D6
:101E700019D2DFE800F0160C11161616626FD9F8A9
:101E8000001021F038011143C9F80010EBE70121DF
:101E9000201D01F081FD03E00098012101F00CFEFE
:101EA000054675B100E001252E46207840071FD574
:101EB000D4F88C00062819D2DFE800F0160C1116B1
:101EC0001616226FD9F8001021F007011143C9F846
:101ED0000010EAE70121201D01F05EFD03E00098FB
:101EE000012101F0E9FD05469DB100E001252E46E6
:101EF000207880062BD5D4F88800B0F1405F24D03C
:101F000011DC10B3B0F1805F15D0B0F1005F10D1DB
:101F100016E0D4F88C20D8F8001021F00701114306
:101F2000C8F80010E4E7B0F1804F0ED0B0F1A04F38
:101F30000BD001250AE00021201D01F02DFD03E05A
:101F40000098022101F0B8FD05468DB12E4620789B
:101F500040062BD5D4F89400B0F5406F24D011DCA6
:101F600010B3B0F5806F15D0B0F5006F10D116E04A
:101F7000D4F88820D9F8001021F0E0411143C9F8C5
:101F80000010E4E7B0F5805F0ED0B0F5A05F0BD095
:101F900001250AE00021201D01F0FEFC03E000986D
:101FA000022101F089FD05468DB12E4620780006FC
:101FB0002BD5D4F89800B0F5C04F24D011DC10B365
:101FC000B0F5005F15D0B0F5804F10D116E0D4F811
:101FD0009420D8F8001021F4E0511143C8F8001003
:101FE000E4E7B0F5004F0ED0B0F5204F0BD001253F
:101FF0000AE00021201D01F0CFFC03E0009802213F
:1020000001F05AFD054645B12E46207800071CD543
:10201000E06FB0F5805F0AD00FE0D4F89820D8F8D0
:10202000001021F460411143C8F80010EDE700985A
:10203000022101F041FD00B10126E26FD9F8001044
:1020400021F440511143C9F800102078C00613D57F
:10205000D4F89000B0F5807F05D10098022101F0FE
:102060002BFD00B10126D4F89020D8F8001021F4FF
:1020700040711143C8F800102068000316D5D4F849
:102080009C0038B1B0F5803F09D0B0F5003F0BD0CF
:1020900001250AE00021201D01F07EFC03E00098EC
:1020A000022101F009FD054685B12E462068400356
:1020B00022D5D4F88000B0F5801F11D0B0F5001FF4
:1020C00013D0B0F5401F15D0012514E0D4F89C20A2
:1020D000D8F8001021F440311143C8F80010E5E7AA
:1020E000386840F40030386004E00098012101F0C5
:1020F000E3FC054655B12E462068C0031CD5E06CB4
:1021000070B1B0F5803F10D0012514E0D4F88020E4
:10211000D9F8001021F440111143C9F80010EBE781
:10212000386840F40030386004E00221201D01F0DE
:1021300033FC0546CDB12E462068800005D50098B9
:10214000022101F0B9FC00B10126206880031BD5F3
:10215000A06FB8B1B0F5807F10D0B0F5007F11D07E
:10216000B0F5407F0ED001250DE0E26CDBF80010E9
:1021700021F480311143CBF80010DDE7386840F4DA
:1021800000303860F5B32E462068C00207D5E26EF5
:10219000DAF8001021F000411143CAF8001020685D
:1021A000800207D5626EDAF8001021F080711143C9
:1021B000CAF800102068400009D51448016821F4CD
:1021C000004101600168D4F8B0201143016020682B
:1021D000002807DA226DDBF8001021F0405111438E
:1021E000CBF800102068000208D5D4F88420D9F874
:1021F000001021F440011143C9F800109EB10120E4
:10220000BDE8FC9F06E00000544402581044025808
:10221000CFFFFF00A26FD9F8001021F440711143E5
:10222000C9F80010B0E70020EAE700002DE9F05FF0
:1022300004000F467ED0DFF83882D8F8000000F0A6
:102240000F00B8420CD2D8F8001021F00F0139432A
:10225000C8F80010D8F8000000F00F00B84269D1AB
:102260002078844D40070AD52069296801F0700163
:10227000884204D9296821F070010143296020783F
:102280007C4E361D00070AD56069316801F0700187
:10229000884204D9316821F070010143316020780F
:1022A000C0060AD5A069316801F4E061884204D90A
:1022B000316821F4E061014331602078DFF8B4B186
:1022C00080060BF1080B0CD5E1695846DBF80020BD
:1022D00002F07002914204D9026822F070020A43AF
:1022E0000260207880070AD5E068296801F00F01B4
:1022F000884204D9296821F00F0101432960207820
:10230000C0073ED05B49A2682868183920F4706085
:10231000104328606068022818D0032819D0096883
:10232000012819D0490700294ADADFF848A1AAF1A3
:10233000080A00E044E0DAF8002022F00702024335
:10234000CAF80020FEF7D0FA814612E00968890336
:10235000E9E709688901E6E7C905E4E7FEF7C4FA99
:10236000A0EB090141F28830814202D90320BDE887
:10237000F09F6168DAF8000000F03800B0EBC10FA0
:10238000ECD1207880070AD5E068296801F00F01B8
:10239000884204D2296821F00F0101432960D8F84E
:1023A0000010404601F00F01B9420BD9016821F03D
:1023B0000F0139430160006800F00F00B84201D0FE
:1023C0000120D4E7207840070AD52069296801F068
:1023D0007001884204D2296821F07001014329600C
:1023E000207800070AD56069316801F070018842E1
:1023F00004D2316821F07001014331602078C006B9
:102400000AD5A069316801F4E061884204D23168DC
:1024100021F4E06101433160207880060CD5E16948
:102420005846DBF8002002F07002914204D20268A4
:1024300022F070020A43026000F048F80E492A6850
:102440002B68C2F3032203F00F038A5CC95C02F01D
:102450001F0201F01F01D040084A20FA01F111606B
:102460000749086007480068BDE8F05FFEF778BAE2
:102470000020005218440258CE6E000820000024AC
:102480001C0000241400002430B500F01FF80B4A93
:102490000B490C4B15681468C5F3032204F00F04B4
:1024A0008A5C095D02F01F0201F01F01D040064A5C
:1024B00020FA01F119601060084630BD1844025836
:1024C000CE6E0008200000241C000024454970B591
:1024D00045480968434B103B11F0380208D0011100
:1024E000082A03D0102A0BD0182A0BD0084670BD3A
:1024F00019688906FBD51968C1F3C101C84070BDD0
:102500003A4870BD3749374D18310C1D24350A68DB
:10251000096826682D6802F0030406F00102C1F381
:102520000511C5F3CC0515FB02F200EE102AB8EE3A
:10253000400AE9B32F4ADFED2E0AB7EE001A6CB15C
:10254000DFED2D1A012C01D0022C43D002EE101A1F
:102550001068F8EE422A81EEA22A1EE01C68A4064A
:1025600011D51B6801EE901A1168C3F3C103F8EE90
:10257000612AD84001EE900AC1F30800F8EE611A12
:1025800081EEA22A0BE001EE901ADFED1C2A00BFBB
:10259000F8EE611A106882EEA12AC0F3080001EE7D
:1025A000900AF8EE611A40EE201A31EE810A00E03E
:1025B00015E022EE000A1068C0F34620401C00EE31
:1025C000900AF8EE600A80EE201ABCEEC10A10EE06
:1025D000100A70BD01EE901ADFED092AD8E700203D
:1025E00070BD0000104402580090D00340787D0177
:1025F00000000039304402580024744A0024744C0E
:1026000020BCBE4B2DE9F04704007DD0FF4F207861
:10261000FE4D1837DFF8F483103DC00748D0D8F8D6
:102620000000396800F03800102815D0182803D1B0
:1026300001F0030002280FD06068B0F5803F12D08F
:1026400010B1B0F5A02F18D0286820F48030286091
:10265000286820F4802009E02868800328D5606875
:102660000028D2D024E0286840F4803028606068D8
:1026700088B1FEF739F9064609E0286840F4802061
:102680002860F0E7FEF730F9801B64287ED82868C0
:102690008003F7D50CE0FEF727F9064605E000BFFA
:1026A000FEF722F9801B6428F0D828688003F7D44D
:1026B0002078800756D5D8F80000DFF850933968A5
:1026C00010F03800A9F10C090ED0182801D18807A4
:1026D0000AD0E068A8B3296821F0190101432960F4
:1026E000FEF702F9064628E02868400702D5E068B0
:1026F00000288AD0E168286820F019000843286083
:10270000FEF7F2F8064606E0D2E000BFFEF7ECF86E
:10271000801B0228BAD828684007F7D5217CD9F851
:10272000002022F0FE4242EA0161C9F8001019E0DF
:10273000FEF7DAF8801B0228A8D828684007F7D5EA
:10274000ECE7FFE7286820F001002860FEF7CCF8EE
:10275000064604E0FEF7C8F8801B022896D82868D1
:102760004007F7D42078C00646D5D8F80000DFF837
:102770009C92396800F03800A9F10409082812D0A9
:10278000182805D101F00300012800E0CEE00AD0AE
:10279000E0690028286820D040F080002860FEF71B
:1027A000A3F8064615E02868C00502D5E069802830
:1027B0007ED194F82010D9F8002022F07C5242EA11
:1027C0000161C9F8001017E0FEF78EF8801B02289F
:1027D000A0D82868C005F7D5EBE720F08000286076
:1027E000FEF782F8064604E0FEF77EF8801B02281A
:1027F00090D82868C005F7D42078000729D58348E9
:102800006169643000298146016811D041F00101FD
:102810000160FEF769F8064605E000BFFEF764F8C0
:10282000801B022888D8D9F800008007F6D510E070
:1028300021F001010160FEF757F8064605E000BFF0
:10284000FEF752F8801B022870D8D9F800008007E4
:10285000F6D42078800623D5A0690028286810D0F7
:1028600040F480502860FEF73FF8064605E000BFC0
:10287000FEF73AF8801B022858D828688004F7D55C
:102880000EE020F480502860FEF72EF8064604E0A3
:10289000FEF72AF8801B022848D828688004F7D45D
:1028A0002078400751D5DFF86891D9F8001000E092
:1028B0000DE141F48071C9F80010FEF715F80646E5
:1028C00005E000BFFEF710F8801B64282ED8D9F869
:1028D0000000C005F6D54D4EA068603601280AD02C
:1028E00008B1052813D0306820F00100306030684E
:1028F00020F0040002E0306840F001003060A06881
:1029000041F2883A98B1FDF7EFFF81460AE030685E
:1029100040F004003060EEE7FDF7E6FFA0EB0901B0
:10292000514503D830688007F6D50EE072E0FDF718
:10293000DBFF814606E000BFFDF7D6FFA0EB0901F3
:10294000514567D830688007F6D4606AF0B34146D5
:10295000DFF8B88008F120080968C1F3C201032933
:1029600077D00228286820F08070286003D0FDF717
:10297000BBFF044680E0FDF7B7FF064605E000BF59
:10298000FDF7B2FF801B022873D828688001F7D4B6
:10299000E26A40F2F331386854F8283F884340EA4D
:1029A000021018433860217B4FF4FE0C22894FF04F
:1029B000FE47268A4902207D521E761EA1F500712F
:1029C00089B20CEA0646C2F3080200E081E0114336
:1029D000401E314307EA00620C4811430B4A1C3089
:1029E000C8F800102432016821F00101016011686B
:1029F0004FF6F876236AB14341EAC30111600168DA
:102A0000A26921F00C011143016004E01044025856
:102A1000004802582DE00168E26921F002011143EB
:102A20000160016841F480310160016841F40031C6
:102A30000160016841F480210160016841F00101F9
:102A40000160286840F080702860FDF74DFF044663
:102A500005E015E0FDF748FF001B022809D82868AB
:102A60008001F7D535E000BFFDF73EFF001B0228CF
:102A700002D90320BDE8F08728688001F4D428E05B
:102A800039680128D8F8000021D0A26A01F00303B8
:102A900093421CD1E26AC1F305118A4217D1216B1E
:102AA000C0F30802491E8A4211D1616BC0F346226D
:102AB000491E91420BD1A16BC0F30642491E9142BF
:102AC00005D1E16BC0F30660491E814201D00120AF
:102AD000D0E70020CEE7704770477047704700008E
:102AE0002DE9FC5F0446806B0E46032184F830100C
:102AF000002703285CD0B6F5004F59D0B6F5804FBB
:102B00004FF000054FF400684FF0806904D006B321
:102B1000606B40F000603FE0009500210195206867
:102B200001F0ACFB80011CD46946204601F0EEFBAD
:102B300070BB019840032DD5B4F8441020680904F7
:102B400001F050F820BB206802211DE0606B284393
:102B500022E0009500210195206801F08FFB8001A3
:102B600001D54546F2E76946204601F0CFFB78B92A
:102B70000198C0030ED5B4F844102068090401F090
:102B800031F828B92068002101F076F80028DDD05E
:102B90000546DBE74D46D9E76063606B4FF4007B89
:102BA000DFF8B8A040B121680127C1F838A042E0A1
:102BB000606B40F08050EFE74FF48030FEF7E2FDAD
:102BC000010033D0264D3346D4E904C0B1FBF5F8FB
:102BD000D4E90192804511D9A66D5E450ED0B6F5B7
:102BE000807F12D04FEA6506E8B14FEA4008B1FB9A
:102BF000F8F8B04502D900BFB1FBF5F04946CDE980
:102C000000C0206801F03EFB15E0164E30B14FEADF
:102C10004008B1FBF8F8A84502D8EFE7A942EDD982
:102C2000B1FBF6F0EAE7B142E6D8E7E7606B0127CF
:102C300040F0006060632068594601F004F830B14C
:102C400022680127C2F838A0616B0143616301204B
:102C500084F830003846BDE8FC9F0000FF0FE01FFD
:102C600080F0FA0200E1F50570470000F0B5C26D92
:102C7000920F0A70C26DC2F383624A70C26DC2F3D2
:102C800001628A70C26D120CCA70B0F85C20120A20
:102C90000A7190F85C204A71026E120DCA80026EB1
:102CA000C2F303420A72B0F86020C2F3C0324A7223
:102CB000B0F86020C2F380328A72B0F86020C2F3AC
:102CC0004032CA72B0F860200026C2F300320A73A4
:102CD0004E730122836B4FF4007463B1012B3AD021
:102CE000036850499963416B41F08051416380F81A
:102CF00030200120F0BDB0F86030456E9B051B0D03
:102D000043EA95730B61436EC3F3C2630B75436E65
:102D1000C3F302634B75436EC3F342538B75436E2B
:102D2000C3F38243CB75436EC3F3C2330B760D6995
:102D30006D1C85640B7E03F007039B1C9D4085641E
:102D40000B7A446503F00F0302FA03F35F0A7D4335
:102D5000C0E913350EE090F86050436EAD06AD0A41
:102D600045EA13430B610B695B1C9B028364C0E95A
:102D700013434465B0F86430C3F380334B76B0F846
:102D80006430C3F3C6138B7690F8643003F07F038E
:102D9000CB76836EDB0F0B77836EC3F341734B7778
:102DA000836EC3F382638B77836EC3F38353CB77D6
:102DB000836EC3F3405381F8203081F82160836E25
:102DC000C3F3004381F82230B0F86830C3F3C03356
:102DD00081F82330B0F86830C3F3803381F82430B1
:102DE000B0F86830C3F3403381F82530B0F868306C
:102DF000C3F3003381F82630B0F86830C3F3812381
:102E000081F82730B0F86830C3F3012381F8283007
:102E100090F86800C0F3460081F8290081F82A2064
:102E20000020F0BDFF0FE01F826B0A60C26B4A609A
:102E3000026C8A60426CCA60826C0A61C26C4A6130
:102E4000026D8A61406DC8610020704770B5B0F8AE
:102E50004410002504460068090400F0FAFF18B188
:102E6000616B0143616304E02068002101F006FA10
:102E70000546C5F3432070BD2DE9F041054690F8A5
:102E8000300090B00C460026032810D06946284632
:102E900001F084FB2A4F4FF0010860B12A68012637
:102EA00097636A6B02436A6385F8308039E00120DA
:102EB00010B0BDE8F08100994FF47F40C1F381115B
:102EC00021700099C1F340116170009900EA11224C
:102ED00042EA11616180019909BA61600299217227
:102EE0000299090A61720299C1F30351A172DDE9E5
:102EF000022100EA1240C9B20843A0810398C0F33E
:102F00008520A0730398C0F30120E0730398C0F3F9
:102F100003102074039800F00F0060740498000EF2
:102F2000A07428684FF4007100F08DFE28B12A6863
:102F300001269763686385F830803046B8E7000063
:102F4000FF0FE01F2DE9F84304460068E56A416B76
:102F500009041BD5290719D5D4E90950202813D312
:102F60000026206801F0A4F9020A2870010C6A709A
:102F7000030EA970761CEB70082E05F10405F0D342
:102F8000A06A2038C4E90950BDE8F883416B0127E5
:102F9000DFF8EC810026C90551D539024CF23A120E
:102FA000816329072068C16B21EA0201C16320689F
:102FB000C16B21F08051C1632068C16821F04001DC
:102FC000C16018D515F0220F09D0206800F08EFFDF
:102FD00028B1616B014361632046FFF745FE21681C
:102FE000AA07C1F8388084F83070E66223D1204601
:102FF00000F0AEFAC8E72806C6D5206815F0220F03
:1030000086622068C6622068066509D0206800F0E4
:103010006DFF28B1616B014361632046FFF724FE19
:1030200015F0300F84F83070E66202D0204600F0D0
:103030008FFAA807A8D0204600F086FAA4E7416BD3
:10304000490421D529071FD5D4E9075020289BD34F
:10305000002628780090697840EA01200090A9783D
:1030600040EA01400090E9782D1D40EA016000909F
:103070002068694601F034F9761C082EE9D3206AED
:103080002038C4E907507FE7416B11F03A0F416BDC
:1030900058D0890703D5616B41F002016163416B30
:1030A000090703D5616B41F008016163416B890633
:1030B00003D5616B41F020016163416BC90603D503
:1030C000616B41F010016163C0F838802068C16B0A
:1030D00021F49D71C1632068C16821F04001C16085
:1030E0002068C16A41F40051C1622068C16841F0A2
:1030F0008001C160206800F0F9FE626B2B074FF47D
:10310000006140EA020060632068C26822F0800229
:10311000C2602068816303D584F83070E6620DE0F8
:1031200028068BD5606B002888D02068C16B21F001
:103130008051C1632068066584F830702046FFF72F
:1031400093FD21E7C9009ED54FF08051816320682F
:10315000006D40074FEA856008D40028204602DA57
:10316000FFF7BCFC10E7FFF7B7FC0DE7002820468F
:1031700002DAFFF7B2FC07E7FFF7ADFC04E7000057
:103180003A0F0018F0B5040085B020D094F8300054
:10319000002518B92046257600F094F8042084F81C
:1031A0003000204600F03CF888B969462046FFF719
:1031B00063FE60B99DF81010A26B9DF81100012A02
:1031C00008D0A5652046E168FFF78AFC58B10120C8
:1031D00005B0F0BD014302D04FF4007001E04FF4A0
:1031E0008070A065EEE7FDF77FFB0127064604E04F
:1031F000FDF77AFB801B401C0AD02046FFF726FE15
:103200000428F5D16563E56284F830700020DFE7BB
:103210004FF00040606384F830700320D8E700006E
:103220002DE9FC4104464FF000084FF48030FEF7D2
:10323000A9FA05004FF0010620D01F484346424638
:103240004146B5FBF0F7CDE90087206801F01AF898
:10325000206801F027F878001849B5FBF0F0B1FBC1
:10326000F0F0401CFDF750F9204601F03DF958B14F
:1032700084F83060616B0143616319E04FF00060D6
:1032800084F83060606313E0204601F0B1F8002854
:10329000EED120684FF4007100F0D5FC002808D072
:1032A000226807499163616B0143616384F8306070
:1032B0000120BDE8FC81000000350C001021010058
:1032C000FF0FE01FF0B5B3B0044614212DA8FDF7A1
:1032D00022F8B4216846FDF71EF826492068884286
:1032E00045D14FF480300090002468461394FEF7D7
:1032F00069FB08B1FDF783F81F48016841F480318C
:103300000160006800F4803032901B480C30016886
:1033100041F004010160016801F00401329101688B
:1033200041F008010160006802252FAA00F00800A2
:1033300032904FF4F850CDE92D0503260F480C27A5
:1033400082E8D0002DA9FDF7C1F904202FAACDE90C
:103350002D050B482DA982E8D000FDF7B7F9002212
:1033600031201146FDF786FB3120FDF775FB33B0A8
:10337000F0BD000000700052D4440258000802580A
:10338000000C02582DE9F04F87B0994617460D46BC
:103390000446FDF7A9FA06903DB194F830000128E3
:1033A00007D0606B40F000500DE0606B40F00060B3
:1033B00009E0226D002007EB09016063914204D906
:1033C000606B40F000706063A8E0032184F8301067
:1033D0002168C862A16B012900D07F024FF0020A68
:1033E000CDE903A090264FF0FF324FEA4923059024
:1033F0008DE84C0080462068694600F0D5FD2068C5
:10340000B9F1010F4FF00106C16841F04001C16000
:1034100006D9C4F82CA03946206800F085FC04E0E9
:10342000E6623946206800F099FCDFF814A150B13B
:103430002368C3F838A0616B0143616384F830608E
:10344000C4F82C806AE0DDF804B01FE0406B000493
:1034500014D5BBF1200F11D30027206800F028FFFE
:10346000020A2870010C6A70030EA9707F1CEB70B1
:10347000082F05F10405F0D3ABF1200BFDF734FA6A
:103480000699411A1098814221D200B32068416BFD
:1034900011F4957FDAD0C16821F04001C160206845
:1034A000416BC90522D5B9F1010F1FD9A16B0329C1
:1034B0001CD000F01BFDC8B12368C3F838A0626BB4
:1034C0000243626384F83060C4F82C8026E02268EE
:1034D000C2F838A0606B40F00040606384F8306050
:1034E000C4F82C80032007B0BDE8F08F2068416B42
:1034F000090706D5C0F838A0616B404641F00801C5
:1035000008E0416B89070BD5C0F838A0616B4046D5
:1035100041F00201616384F83060E0620120E2E77B
:10352000416B890606D5C0F838A0616B404641F072
:103530002001EFE70349816384F830600020D2E77F
:10354000FF0FE01F3A0F001810B5FCF743FF10BD46
:1035500010B5FCF751FF10BD2DE9F04F89B09A4628
:1035600016460D460446FDF7BFF906903DB194F8A6
:103570003000012807D0606B40F000500DE0606B18
:1035800040F0006009E0226D002006EB0A01606354
:10359000914204D9606B40F000706063B2E0032197
:1035A00084F830102168C862A16B012900D076022E
:1035B0004FF0FF314FEA4A22059090230490CDE965
:1035C0000230CDE9001280462068694600F0ECFC2C
:1035D0002068C168BAF1010F41F04002C26006D90B
:1035E0002020E0622068314600F0AAFC05E01020AF
:1035F000E0622068314600F0BDFCDFF830B1060023
:103600004FF001090AD02368C3F838B0606B30432B
:10361000606384F83090C4F82C8073E001980890BF
:1036200027E0406B40041CD50898202819D30027B8
:1036300028780790697840EA01200790A97840EA45
:1036400001400790E9782D1D40EA0160079020684D
:1036500007A900F045FE7F1C082FE9D30898203801
:103660000890FDF741F90699411A1298814221D23A
:1036700000B32068416B11F48D7FD2D0C16821F076
:103680004001C1602068416BC90521D5BAF1010F25
:103690001ED9A16B03291BD000F028FCC0B12568FE
:1036A000C5F838B0616B0143616384F83090C4F8A9
:1036B0002C8027E02368C3F838B0626B3243626322
:1036C00084F83090C4F82C80032009B0BDE8F08F56
:1036D0002068416B090707D54946C0F838B0626BCE
:1036E000404642F0080209E0416B89070CD5494683
:1036F000C0F838B0626B404642F00202626384F860
:103700003010E0620120E0E7416BC90607D5494669
:10371000C0F838B0626B404642F01002EEE7044A4F
:10372000826384F830900020CFE70000FF0FE01F95
:103730003A0F0018401EB0F1807F10B501D3012070
:1037400010BD4FF0E02460610F21601702F0E7F830
:103750000020A0610721216110BDFEE70449054852
:1037600010B5FCF74EFE0249491E087010BD00005E
:1037700027000024E06E000800B587B014216846D9
:10378000FCF7C9FD1948016841F08001016001683A
:1037900001F080010591016841F0020101600168BA
:1037A00001F002010591016841F004010160016826
:1037B00001F004010591016841F001010160016817
:1037C00001F001010591016841F008010160006804
:1037D0000021012200F00800059004208DE8070078
:1037E00003486946FCF772FF07B000BDE044025889
:1037F00000040258074800214FF4804310B5044CE0
:103800000A22C0E90041C0E90213C0E9041210BD58
:1038100000700052940C0024FEE7FEE70148FDF71B
:1038200065BA0000300F00242DE9F041044600691C
:103830000D462027236801284FF4004604F2C442B5
:1038400003EB4511D3F840C0D1F8080B09D0DFF8DD
:103850009CE0F4453AD1020433D500BFC1F8086BAF
:1038600040E0234B5FEA007E04D59C453AD9000432
:10387000F4D437E05FEA806E02D5C1F8087B31E00E
:1038800010F0280F2ED19C4501D90004E6D4D1F8C0
:10389000101B05EBC50004EB8000C1F31201D0F84A
:1038A0009832A3EB0101C0F89C1200F51F70ADB96E
:1038B00083691BB10269114401610FE02068012195
:1038C0000AE080060AD5C1F8087B07E035B9D4F8CC
:1038D000940218B90021184601F042FD2046E9B2D1
:1038E000FDF708F90020BDE8F08100000A31544FCF
:1038F0000A30544F2DE9F84F0E460568814601EB1A
:10390000C60100EB8104626DE06D3C34904202D947
:103910000120BDE8F88FE168101A814200D2084604
:10392000C01C05EB461887081BE000BFE268A0EB4F
:10393000010A524500D2924699F810100AF103008C
:1039400000911FFA8AF3216987082846F2B201F034
:10395000D1FF216901EB0A002061216A01EB0A0015
:103960002062D8F8180980B2B84205D3216AA0694C
:10397000814201D20028D9D1216AA069884208D8A1
:10398000D5F83418012006F00F0290408143C5F8A5
:1039900034180020BDE770472DE9F047454D044637
:1039A00089464FF0000A2868C04380070AD0414E7C
:1039B000283E306820F080603060FCF795FF0746B5
:1039C000B04608E00120BDE8F08700BFFCF78CFF9F
:1039D000C01B022867D8D8F800000001F6D4206880
:1039E00029684FF4FE0721F47C313E0241EA0030A1
:1039F0002860207AA389B4F804C040022D4D2D49D7
:103A00005B1E227CACF1010C1035091DA0F5007085
:103A100080B2521ECCF3080C07EA034340EA0C00C4
:103A2000184306EA0262104328600868626920F0C1
:103A3000C000104308600A68A06922F02002024317
:103A40000A60281D0A6822F010020A6002684FF618
:103A5000F873E4699A4342EAC40202600868B9F163
:103A6000000F40F010020A6011D00868B9F1010F90
:103A700011D040F400100860D8F80000444640F02F
:103A80008060C8F80000FCF72FFF05460DE00868CD
:103A900040F40020EFE740F48010ECE7FCF724FF4F
:103AA000401B022801D903208DE720680001F5D5CD
:103AB000504688E7284402582DE9F047454D044612
:103AC00089464FF0000A2868C04380070AD0414E5B
:103AD000283E306820F080503060FCF705FF074634
:103AE000B04608E00120BDE8F08700BFFCF7FCFE0F
:103AF000C01B022867D8D8F800008000F6D42088C0
:103B000029684FF4FE0721F07C713E0241EA005023
:103B10002860207AA389B4F804C040022D4D2D49B5
:103B20005B1E227CACF1010C1835091DA0F500705C
:103B300080B2521ECCF3080C07EA034340EA0C00A3
:103B4000184306EA0262104328600868626920F49C
:103B50004060104308600A68A06922F400720243C2
:103B60000A60281D0A6822F480720A6002684FF613
:103B7000F873E4699A4342EAC40202600868B9F142
:103B8000000F40F480720A6011D00868B9F1010F8B
:103B900011D040F080700860D8F80000444640F032
:103BA0008050C8F80000FCF79FFE05460DE008684D
:103BB00040F48000EFE740F40000ECE7FCF794FEEF
:103BC000401B022801D903208DE720688000F5D52D
:103BD000504688E7284402580148FFF7B3B900006F
:103BE000940C002430B585B0044637204FF4807221
:103BF0000DF1080CCDE9001000236946150120469F
:103C00008CE82C0000F058FB372141F28832204626
:103C100000F0DEF905B030BD30B585B0044629208E
:103C20004FF480720DF1080CCDE9001000236946B5
:103C3000150120468CE82C0000F03EFB204600F0E9
:103C400083FA05B030BD30B50446102085B00DF1C3
:103C5000080C02010502CDE90010002369468CE83A
:103C60002C00204600F028FB102141F2883220462B
:103C700000F0AEF905B030BD30B585B00446062081
:103C80004FF480720DF1080CCDE900100023694655
:103C9000150120468CE82C0000F00EFB062141F2B5
:103CA0008832204600F094F905B030BD30B585B0BB
:103CB0000546002469464FF4805000940194029414
:103CC000CDE90340284600F0F7FA0B4A4FF4FA50CA
:103CD00041F288311268B2FBF0F04843401E03D233
:103CE0004FF0004005B030BD696B0906F6D50349B9
:103CF0002046A963F6E700001C000024C500200050
:103D000030B50821044685B04FF4D5704A01002330
:103D10004D028DE82F006946204600F0CDFA20467E
:103D200000F07CFA05B030BD30B585B004461220F5
:103D30004FF480720DF1080CCDE9001000236946A4
:103D4000150120468CE82C0000F0B6FA122141F251
:103D50008832204600F03CF905B030BD30B585B062
:103D6000044611204FF480720DF1080CCDE90010CB
:103D700000236946150120468CE82C0000F09CFACF
:103D8000112141F28832204600F022F905B030BD01
:103D900030B585B0044607204FF480720DF1080C51
:103DA000CDE9001000236946150120468CE82C005F
:103DB00000F082FA072141F28832204600F008F92B
:103DC00005B030BD10B585B00446002102204FF487
:103DD0004072C3020493CDE90010CDE90221694687
:103DE000204600F069FA204600F084F905B010BDC5
:103DF00030B585B0044609200DF1080C0023CDE94B
:103E000000104FF4407269464FF4805520468CE80C
:103E10002C0000F051FA204600F06CF905B030BDDE
:103E200010B585B00446002133204FF48072CDE9EF
:103E30000221CDE90010130169462046049300F0E9
:103E40003BFA332141F28832204600F0C1F805B038
:103E500010BD30B585B004460D204FF480720DF1D1
:103E6000080CCDE9001000236946150120468CE8B6
:103E70002C0000F021FA0D2141F28832204600F09A
:103E8000A7F805B030BD30B585B00C460021054619
:103E900003204FF48072CDE90221CDE90010130117
:103EA00069462846049300F007FA03212246284673
:103EB00000F06EF905B030BD10B585B004460021A4
:103EC0000D204FF48072CDE90221CDE900101301DD
:103ED00069462046049300F0EFF90D2141F2883243
:103EE000204600F075F805B010BD000010B585B093
:103EF00004464FF4807200200C2113018DE8070066
:103F0000CDE90303E06840F08000E060E06820F065
:103F10004000E0606946204600F0CEF9074A0C21D7
:103F2000204600F055F8E168B0F1007F21F08001F3
:103F3000E16000D1002005B010BD000000E1F505F2
:103F400030B585B0044619204FF480720DF1080C8D
:103F5000CDE9001000236946150120468CE82C00AD
:103F600000F0AAF9192141F28832204600F030F819
:103F700005B030BD30B585B0044618204FF48072CE
:103F80000DF1080CCDE9001000236946150120460B
:103F90008CE82C0000F090F9182141F2883220467C
:103FA00000F016F805B030BD70B50A6842624A6884
:103FB0008262C46AD1E90225D1E9043624F0FF0106
:103FC0002A4333431A431143C162002070BD0000ED
:103FD00030B5464D4FF4FA53434C2D68B5FBF3F31F
:103FE00053435B1E02D24FF0004030BD426B224271
:103FF000F7D09204F5D4426B520703D504218163B4
:10400000084630BD426BD20702D00121816306E031
:10401000354A803282630269D2B28A4201D00120DD
:1040200030BD002100F02AF93149084201D10020B9
:1040300030BD002802DA4FF0007030BD410001D5DC
:10404000402030BD810001D5802030BDC10002D5A7
:104050004FF4807030BD010102D54FF4007030BDC7
:10406000410102D54FF4806030BDC10102D54FF44B
:10407000006030BD010202D54FF4805030BD4102D6
:1040800002D54FF4005030BD810202D54FF480407C
:1040900030BDC10202D54FF4004030BD410302D50E
:1040A0004FF4003030BD810302D54FF4802030BD85
:1040B000C10302D54FF4002030BD010402D54FF4F6
:1040C000801030BD410402D54FF4001030BD810492
:1040D00002D54FF4800030BD000702D54FF4000038
:1040E00030BD4FF4803030BD450020001C0000245E
:1040F00008E0FFFD124B4FF4FA5141F288321B6881
:10410000B3FBF1F15143491E02D24FF0004070471A
:10411000426B12F0450FF6D09204F4D4416B49077C
:1041200003D50421816308467047416BC90703D05A
:10413000012181630846704702498163002070476E
:104140001C000024C50020000F4B4FF4FA5141F22F
:1041500088321B68B3FBF1F15143491E02D24FF084
:1041600000407047426B12F0450FF6D09204F4D431
:10417000416B490703D50421816308467047034911
:1041800081630020704700001C000024C50020004F
:1041900030B5204D4FF4FA5341F288342D68B5FB09
:1041A000F3F363435B1E02D24FF0004030BD446B1B
:1041B00014F0450FF6D0A404F4D4436B5B0703D589
:1041C00004218163084630BD436BDB0702D0012127
:1041D000816303E00369DBB28B4201D0012030BD73
:1041E0000D498163002100F049F810F4604F04D0BC
:1041F000410406D54FF4005030BD000C1080002063
:1042000030BD000402D54FF4805030BD4FF48030F3
:1042100030BD00001C000024C5002000144B4FF4EA
:10422000FA5141F288321B68B3FBF1F15143491E48
:1042300002D24FF000407047426B12F0450FF6D0AB
:104240009204F4D4416B490703D5042181630846E5
:104250007047416BC90703D001218163084670474D
:10426000416B490601D54021816300207047000061
:104270001C000024006800F00300704708444069F7
:104280007047000030B511434268DDE903542B4309
:10429000034D194321432A400A434260002030BDA8
:1042A000002CC0FF016841F003010160002070474D
:1042B000D0F880007047000070B5084D0A68826031
:1042C000C368D1E90126D1E903412B4032430C43B5
:1042D00022431343C360002070BD0000C0E0FEFF16
:1042E0000968C0F8801000207047000010B5064C27
:1042F00001202070FCF732F818B9207820F0010076
:104300002070207810BD0000250000242DE9F04F1A
:1043100087B00D460446FCF7E7FA002606902068B1
:104320000821B3463746FFF78EFC002833D1B4F896
:10433000441020680904FFF755FC00282BD1431EC8
:104340004FF008094FF0020A4FF0300C4FF001080F
:10435000CDF80CA08DE80812CDE904682068694604
:10436000FFF722FE2068FFF75BFD002813D140F223
:104370002A582068416B11EA080F06D1416B0903E6
:1043800015D4BBF1000F09D011E0416B090717D517
:10439000C0F83890082007B0BDE8F08FFFF788FF1D
:1043A00006462068FFF784FF07464FF0010BFCF735
:1043B0009BFA0699401A401CDBD14FF00040EAE717
:1043C000416B890703D5C0F838A00220E3E7416BB1
:1043D000890603D5202181630846DCE7034A39BA00
:1043E00033BA82630020C5E90013D4E73A0F0018FE
:1043F00070B58CB004460020ADF82C00FCF774FAC0
:1044000005462068FFF736FF002853D0A06B03282D
:1044100041D02068FFF7D6FC002849D12068002150
:10442000FFF72CFFE06604212068FFF727FF2067D5
:1044300008212068FFF722FF60670C212068FFF742
:104440001DFFA16BA067032925D041F2883600BF6C
:10445000BDF82C0088B3A06B03281CD0BDF82C102D
:10446000616420680904FFF7C3FC002820D120689C
:104470000021FFF703FFE06504212068FFF7FEFE3F
:10448000206608212068FFF7F9FE60660C2120688D
:10449000FFF7F4FEA06604212068FFF7EFFE000D91
:1044A000694620642046FEF7E1FBA8B14FF080503A
:1044B0000CB070BD4FF08060FAE7FFE720680BA9F1
:1044C000FFF7E1FC0028F3D1FCF70EFA401BB042E5
:1044D000BED34FF00040EBE7B4F844102068090465
:1044E000FFF756FCE4E700002DE9F84F00260446EC
:1044F0003546B04600960068FFF7D8FB002829D162
:104500002068FFF7FDFBB0F1004F4FF001094FF0BD
:10451000805B4FF6FF7702D0C4F83C9008E0E6637A
:104520002068FFF7C3FB002814D1E06B01281ED1DF
:1045300020680021FFF756FB58B918E020680021D9
:10454000FFF750FB002805D120685146FFF764FBB8
:1045500010B15846BDE8F88F20680021FFF78EFEA5
:104560004FEAD07805460098401C009002E0DFF842
:1045700028A00098B84202D2B8F1000FDED000980F
:10458000B84202D34FF08070E4E76800A66301D51B
:10459000C4F838900020DDE7000010C12DE9F0419B
:1045A00086B00D460446FCF79FF9002107462068B7
:1045B000FFF764FE800104D54FF4006006B0BDE84B
:1045C000F08120684021FFF73EFBC0B9B4F84410E9
:1045D00020680904FFF706FB88B940214FF0FF303F
:1045E00060224FF0010C022300268DE84F10206856
:1045F0006946FFF7D9FC2068FFF75EFC98B1616B54
:104600006163DBE7406B000407D500262068FFF7F5
:104610004FFE761C082E01C5F8D3FCF765F9C01BC8
:10462000401C02D127E04FF000482068416B11F494
:10463000957FE7D0416B090701D50820BEE7416BA4
:10464000890701D50220B9E7406B80060AD52020F2
:10465000B4E700BFFFF72CFE01C5FCF745F9C01B0E
:10466000401C08D02068416BC904F3D401460348BC
:1046700088630020A2E74046A0E700003A0F001838
:1046800070B5064C054601202070FBF773FE18B983
:104690002846FFF72BFE2070207870BD25000024EF
:1046A000144810B58AB014460078C00702D0032021
:1046B0000AB010BD39B1012907D002290BD0032956
:1046C00010D00420F4E70020F2E76846FBF740FE34
:1046D000069900200CE06846FBF73AFE0799002097
:1046E0002180E5E76846FBF733FE07990020490A79
:1046F0002160DDE72500002470B501241D46164623
:104700000846A31E2A463146FBF754FE28B900BFCF
:10471000FBF724FE0028FBD10024204670BDFFF7E4
:10472000E5BD000070B501241D4616460846A31ECF
:104730002A463146FBF750FE28B900BFFBF70EFEB4
:104740000028FBD10024204670BD704701784078D6
:1047500041EA00207047FCF7CDB8000030B59DB0AD
:104760004C216846FBF7D7FD202113A8FBF7D3FDAA
:104770000220FCF7E3FD1F48016821F4404101607D
:104780000168002401F440411B9101688904FCD5B3
:10479000022009902C2521220092C30301930121BC
:1047A00006910A900C23CDE90B050FAD052285E893
:1047B000190012946846CDE90D12FDF723FF08B1E8
:1047C00072B6FEE740201A9008230501CDE91630A5
:1047D00013ABCDE918053F21032283E8160013A887
:1047E0001146FDF723FD002801D072B6FEE71DB08B
:1047F00030BD0000184802582748F0B5274A016824
:1048000041F470010160106800F00F00072804D225
:10481000106820F00F00C01D106021490020204CBE
:1048200010340B681F4D43F001030B6020600B68D0
:104830002B400B60136803F00F03072B04D9136898
:1048400023F00F03DB1D1360154C174A1834174B68
:10485000261D371D2060124C154D28343060261D52
:104860003860371D23603B1D35601C1D3A60251DD7
:104870002E1D1860331D22602860326018600A689F
:1048800043F2D204064B0B4D22F4802260330A60BF
:1048900018602C60F0BD000088ED00E000200052A0
:1048A000004402587FEDF6EA800201010002020294
:1048B0000000FF010040005210B5D0F8B8220024DB
:1048C0005268904700B10324204610BD0020704775
:1048D0000020704713460A46002110B500F0BAF9CF
:1048E000002010BD13460A46002110B500F04FFA13
:1048F000002010BD10B58021044600F036FA204695
:10490000BDE81040002100F030BA10B50521C0F814
:10491000941200231A46194600F09CF9002010BD9D
:1049200010B582610223C0F89432C26113460A4670
:10493000002100F02CFA002010BD10B50421C0F8B1
:10494000941200231A46194600F021FA002010BDE7
:10495000F8B504460D460020ADF800004888010A6D
:1049600008295FD2DFE801F05E0409175E5E3C456E
:10497000D4F8B412207C0A6819E0207C02260028B2
:10498000D4F8B80205D0C16A684688470146467027
:1049900039E0816AF8E7C0B2062843D2DFE800F0C8
:1049A000030A1014181CD4F8B402426805E06946E2
:1049B00090471CE0D4F8B402826892B3207CF6E7FA
:1049C000D4F8B402C268F8E7D4F8B4020269F4E794
:1049D000D4F8B4024269F0E7D4F8B4028269ECE793
:1049E000207CF0B9D4F8B802416B6846884701468C
:1049F00009E0207CA8B9D4F8B802016B6846884762
:104A0000014607204870EA888AB1BDF8000040B12D
:104A1000824200D902462046ADF80020FFF780FF11
:104A2000F8BDFFE729462046FFF764FFF8E7204678
:104A3000FFF783FFF4E701004FF0000004D00129E5
:104A400001D0022901D0032070470120704710B522
:104A5000D0F8C802FCF76BF8BDE81040FFF7EBBFD9
:104A60002DE9F041174604464FF0000521B194F8B6
:104A70009C02032842D04CE0D4F8941204F11400B4
:104A8000022935D1D0E902639E4206D9F21A39468D
:104A900082602046FFF726FF0FE0B34214D1406842
:104AA000984211D3D4F8981288420DD200222046A1
:104AB0001146FFF717FFC4F8985200231A4619460B
:104AC000204600F0C7F813E094F89C02032808D1B0
:104AD000D4F8B802C16821B1C4F8D452C1682046E4
:104AE00088478021204600F040F92046FFF70DFF5F
:104AF00094F8A00268B184F8A0520AE0D4F8B80291
:104B0000426932B1C4F8D452426920469047002825
:104B100000D10020BDE8F08170B5134604464FF087
:104B2000000221B194F89C02032830D03AE0D4F876
:104B3000941204F5AA70032934D1D0E902518D42B0
:104B40000AD96A1A82600846824200D30246194690
:104B50002046FFF7BFFE25E094F8AA0210F01F00E0
:104B600003D0012802D0022800D0002294F89C0231
:104B7000032808D1D4F8B802016921B1C4F8D422BD
:104B80000169204688472046FFF7D7FE0AE0D4F89F
:104B9000B802836933B1C4F8D422826920469047B1
:104BA000002800D1002070BD0020704710B5D0F85B
:104BB000B812012280F89C22002429B103794A68A6
:104BC000D9B2904700B10324204610BDD0F8C822C6
:104BD00001F07F000B0600EBC00002EB800002D565
:104BE00090F83E00704790F87E02704710B5D0F8FC
:104BF000D42200EB8202D2F8B82222B190F89C3283
:104C0000032B02D004E0032010BD126A02B19047CA
:104C1000002010BD10B5D0F8D42200EB8202D2F8EB
:104C2000B82222B190F89C32032B02D004E003207A
:104C300010BD526A02B19047002010BD10B51C464D
:104C4000D0F8C80213462246FBF79FFFBDE810408C
:104C5000FFF7F1BE10B5D0F8C802FBF7C6FFBDE8FC
:104C60001040FFF7E8BE2DE9F04104460125002081
:104C7000D4F8B812064684F89C52C4F894026060D6
:104C8000C4F8A40284F8A00231B14A6822B100211C
:104C90002046904700B103262046002240231146BB
:104CA000FFF7CCFF4027A4F8645100223B46802147
:104CB0002046C4F86071FFF7C1FFA5843046276223
:104CC000BDE8F08190F89C12042903D190F89D1260
:104CD00080F89C120020704710B590F89C120329B0
:104CE00005D1D0F8B81211B1C96901B188470020C7
:104CF00010BD01740020704710B5D0F8C802FCF751
:104D0000E9FABDE81040FFF796BE70B5044600F220
:104D1000AA20054600F044F894F8AA020123B4F84A
:104D2000B01210F01F02C4F89432C4F898120AD0DE
:104D3000012A0ED0022A12D000F080012046BDE8E0
:104D4000704000F012B829462046BDE8704000F0DF
:104D5000A5B829462046BDE8704000F0E8B92946CC
:104D60002046BDE8704000F030B910B5D0F8C80258
:104D7000FBF75FFFBDE81040FFF75DBE90F89C2297
:104D8000042180F89D2280F89C120020704710B505
:104D9000D0F8C802FBF787FFBDE81040FFF74BBE15
:104DA00070B5054608788C1C2870487868702046D5
:104DB000FFF7CCFCA41C68802046FFF7C7FCA88046
:104DC000A01CFFF7C3FCE88070BDD0F8B8320246E3
:104DD0000020002B02D01B681046184770470000C7
:104DE0002DE9F0412C4E0446887800258846C1B252
:104DF0000129317006D941462046FFF77BFD03208B
:104E0000BDE8F08194F89C02022702280CD0032808
:104E10001DD041462046FFF76DFD31782046FFF753
:104E20004BFD03252846EBE789B320466160FFF779
:104E3000CCFF050004D041462046FFF75BFD1DE096
:104E40002046FFF77AFD032084F89C02EAE7C1B10F
:104E5000606888421BD0C1B22046FFF72DFD317833
:104E600020466160FFF7B1FF050010D041462046A3
:104E7000FFF740FD21792046FFF71EFD84F89C7264
:104E8000D0E7616084F89C722046FFF715FD20464C
:104E9000FFF753FDC6E70000240000242DE9F04190
:104EA0000A784FF0000512F060020CD0202A01D0E1
:104EB000402A7DD1D0F8D42200EB8202D2F8B82269
:104EC0009268904731E04B78002201260A2B6FD27E
:104ED000DFE803F041666E586E08056E2D29FFF776
:104EE00037FD67E004468888D8B9C888C8B94888BB
:104EF000802816D294F89C2200F07F07032A10D055
:104F00003946204684F89E72FFF7F6FE2046FFF7EA
:104F100014FD1FB1022084F89C024BE084F89C62CF
:104F200048E0204644E0FFF75BFF054642E0CB88BF
:104F3000012B3DD190F89C32012B04D0022B02D0E2
:104F4000032B35D104E000F108018260012216E054
:104F50000122011D13E090F89C22012A03D0022AAD
:104F600001D0032A24D1CA88022A21D1D0F8A41260
:104F7000C66009B10321C160022200F10C01FFF7F4
:104F8000CFFC17E04A88012A02D0022A03D00FE0A2
:104F9000C0F8A46216E08988090A80F8A01211E01E
:104FA00090F89C32012B08D0022B06D0032B04D0A2
:104FB000FFF7A0FC2846BDE8F08149880129F9D116
:104FC000C0F8A422FFF7B9FCF4E72DE9F0410A7814
:104FD0000E460979054612F060004FF00008CCB289
:104FE0000BD0202801D040286AD121462846FFF75F
:104FF0006DFCFF2800D0D8B396E07078C8B30128C4
:1050000024D003285CD195F89C02022802D0032802
:1050100056D10CE0002C53D0802C51D0214628468C
:10502000FFF7A3FE80212846FFF79FFE7CE07088F3
:1050300040B93CB1802C05D0F08818B921462846EB
:10504000FFF793FE2846FFF778FC6DE095F89C0289
:105050000228DFD0032863D1708880BB600603D0AC
:1050600021462846FFF7F3FC2846FFF766FCBCE71D
:1050700000E00AE0C5F8D402D5F8B8028268F2B1BF
:1050800031462846904780464EE095F89C0200271E
:10509000022802D0032843D113E00CB1802C3FD169
:1050A000200604F07F0000EB800005EB800101D5B5
:1050B000143101E001F5AA7102220F602CE033E007
:1050C0002EE0200604F00F0000EB800005EB8000CE
:1050D00009D5808C20B304F07F0000EB800005EB45
:1050E000800614360AE0B0F86401C8B104F07F000D
:1050F00000EB800005EB800606F5AA764CB1802C0B
:1051000007D021462846FFF761FD10B1012030602D
:1051100000E03760022231462846FFF701FC03E039
:1051200031462846FFF7E6FB4046BDE8F08170B502
:10513000054608780E464FF0000410F0600003D0DA
:10514000202801D0402827D195F89C02012803D0BF
:10515000022801D003281FD1B088C1B201291AD872
:10516000C1B22846FFF7B4FBFF280CD058B9D5F8D8
:10517000B8128A683AB1C5F8D40228468A6831461E
:105180009047044600E00324F088204307D12846D6
:10519000FFF7D3FB03E031462846FFF7ABFB204681
:1051A00070BD000070B54D7801230A78012D1C4CAC
:1051B00002F00F0503FA05F3D0F81C5817D000EBE6
:1051C000421245EA0343C0F81C38D2F8000B000431
:1051D0000BD48B890979D2F8000BC3F30A03184367
:1051E00044EA81410843C2F8000B002070BD9EB222
:1051F0003543C0F81C5800EB4213D3F800090004F3
:10520000F3D48D890979D3F80009C5F30A05890417
:10521000284341EA825108432043C3F80009E4E7E8
:1052200000800010D0F800196FF30A01C0F80019CF
:10523000D0F8041841F48071C0F8041800207047B9
:1052400070B50B784E78454C0D78012E00EB43136A
:1052500022D0D3F8100B6FF31200C3F8100BD3F861
:10526000100B2040C3F8100B886908B1C86888612A
:10527000012AC868C861D3F8100B40F40020C3F8B5
:10528000100BD3F8100BCA69C2F3120240EA0200F5
:10529000C3F8100B56D059E08E69002ED3F8106970
:1052A00033D06FF31206C3F81069D3F810692640A3
:1052B000C3F810698E69CC68A64200D98C61D3F816
:1052C000104944F40024C3F81049D3F810498E69FA
:1052D000C6F3120654EA0604C3F81049012A22D084
:1052E00000EB4512D2F8003943F00443C2F800390C
:1052F0008A6932B30B78D0F83418012203F00F0317
:105300009A401143C0F8341826E02640C3F81069CB
:10531000D3F8104944F40024C3F81049D3F81049D5
:105320006FF31204D8E7496919B100EB4512C2F8CE
:10533000141900EB4510D0F8001941F00441C0F8F1
:10534000001909E0086908B1C3F8140BD3F8000B81
:1053500040F00440C3F8000B002070BDFFFF07E0E1
:1053600010B5144C036CA34203D9D0F8003B002BBA
:105370001EDB0023C0F8103B0129D0F8101B41F4BC
:105380000021C0F8101BD0F8101B41F01801C0F824
:10539000101BD0F8101B41F0C041C0F8101B07D102
:1053A000C0F8142BD0F8001B41F08021C0F8001B7E
:1053B000002010BD0A30544F0B784A78012A00EBC8
:1053C00043100BD0D0F8002B22F40012C0F8002BB1
:1053D0000979032914D0022912D017E0D0F8002946
:1053E00022F40012C0F800290979032901D002290A
:1053F0000CD1D0F8001941F08051C0F8001905E037
:10540000D0F8001B41F08051C0F8001B002070470D
:105410000A784B78D1B2012B00EB421012D0D0F8B1
:10542000002B002A06DB29B1D0F8001B21F08041B7
:10543000C0F8001BD0F8001B41F40011C0F8001B9D
:1054400000207047D0F80029002A06DB29B1D0F8E7
:10545000001921F08041C0F80019D0F8001941F47A
:105460000011C0F80019EBE7F8B50B786FF0604653
:105470004F78764DDCB2012F00EB431327D0D3F8E1
:10548000104B6FF31204C3F8104BD3F8104B2C40A1
:10549000C3F8104B8D69002D76D0CC6825446D1E65
:1054A000B5FBF4F5ADB26C43CC6106EAC545D3F863
:1054B000104B2C43C3F8104BD3F8104BCD69C5F3F8
:1054C00012052C43C3F8104B012A72D0A5E08F6956
:1054D00027B3D3F810796FF31207C3F81079D3F814
:1054E00010792F40C3F810798F69CD68D3F810C9AF
:1054F0002F447F1EB7FBF5F506EAC54545EA0C05C6
:10550000C3F81059D3F810598E69C6F31206354303
:10551000C3F810590D79012D10D01BE0D3F8106994
:105520002E40C3F81069D3F8105945F40025C3F88C
:105530001059D3F810596FF3120509E0D3F8105938
:1055400025F0C045C3F81059D3F8105945F000555F
:10555000C3F81059012A18D000EB4413D3F80049BE
:1055600044F00444C3F800490C79012C2FD08A6917
:1055700062B30B78D0F83418012203F00F039A407D
:105580001143C0F834185EE036E04A691AB100EB06
:105590004413C3F81429097901290FD1D0F8081848
:1055A000C90500EB4411D1F8002903D442F00052A0
:1055B00002E02EE042F08052C1F8002900EB4410D6
:1055C000D0F8001941F00441C0F800193BE0D0F8D0
:1055D0000848E405D3F8004902D444F0005401E03F
:1055E00044F08054C3F8004900920B8B0A78096993
:1055F0009BB200F07FF926E0CD68D3F8104BC5F3DD
:1056000012052C43C3F8104BD3F8104B44F400247C
:1056100058E70A690AB1C3F8142B097901290CD19A
:10562000D0F80808C005D3F8000B02D440F00050B1
:1056300001E040F08050C3F8000BD3F8000B40F0BD
:105640000440C3F8000B0020F8BD0000FFFF07E096
:1056500038B5002242F21074002300920A784D7887
:10566000012D00EB421219D0D2F8005B002D3CDA7C
:10567000D2F8005B45F00065C2F8005B0A7800EBE9
:105680004212D2F8005B45F08045C2F8005B009AF8
:10569000521C0092A24221D9012326E0D2F80059DF
:1056A000002D22DAD2F8005945F00065C2F8005901
:1056B0000A7800EB4212D2F8005945F08045C2F852
:1056C0000059009A521C0092A242E5D80A7800EBD9
:1056D0004212D2F80029002AF3DB06E00A7800EB38
:1056E0004212D2F8002B002AD1DB184638BD000048
:1056F00018B50E4A00230093009C641C0094944249
:105700000CD80469002CF7DA2024009344EA8111B4
:1057100001610099491C0091914201D9032018BDF3
:1057200001698906F5D4002018BD0000400D030072
:10573000D0F8080810F0060004D0022803D006288C
:1057400001D00F20704702207047406900F001002F
:105750007047D0F81818D0F81C08084080B270477D
:10576000D0F81818D0F81C080840000C704710B585
:10577000D0F8102801F00F0300EB4114D0F83418D2
:10578000D4F80809D94001F0010142EAC1110840EA
:1057900010BD00EB4111D1F8081BD0F814080840E7
:1057A000704741698069084070470346084630B534
:1057B000940802F00301002203F5805303E01D6802
:1057C000521C40F8045BA242F9D300290CD01C689B
:1057D0000023491EDD00090403F10103090C24FA2A
:1057E00005F200F8012BF4D130BDD0F800284FF4B9
:1057F000FE6303EA011322F4FE62C0F80028D0F829
:1058000000181943C0F8001800207047022A3ED142
:10581000264A274B0A449A4201D20F2138E0254AF2
:10582000254B0A449A4201D20E2131E0234A244BEF
:105830000A449A4201D20D212AE0224A224B0A440C
:105840009A4201D20C2123E0204B214A0B4493427F
:1058500001D20B211CE01F4B1F4A0B44934201D283
:105860000A2115E01D4B1E4A0B4493420FD31D4BDA
:105870001D4A0B44934201D2082109E01B4B1C4AEC
:105880001944914201D2072102E0062100E00921DA
:10589000C2684FF4705322F47052C26003EA81234D
:1058A000C1681943C160002070470000405327FFC2
:1058B00000350C00401E1BFF40420F0000DC0BFFB8
:1058C000804F1200808CF9FE20D6130060B6E5FEF2
:1058D00060E3160000D3CEFE40771B00C05BB3FE32
:1058E000C091210000CA91FE20753800E05459FE95
:1058F000E09C410010B5029C74B900EB0232DB1C45
:1059000000209B0802F5805204E000BF51F8044BD0
:105910001460401C9842F9D3002010BDFEE709072F
:1059200000284FEA116104DB00F1E02080F8001448
:10593000704700F00F0000F1E02080F8141D704760
:1059400002E008C8121F08C1002AFAD17047704748
:10595000002001E001C1121F002AFBD170470000A6
:1059600010B504460022501EE270E062204601F0AD
:105970003CF908B1042010BD04F22E2001F046F8D5
:10598000A0F52A41553901D0032010BD94F830000C
:10599000E92805D0EB2814D194F83200902810D1D2
:1059A00004F1660001F027F80749B1EB002F06D09B
:1059B00004F1820001F01FF80449884201D100205F
:1059C00010BD022010BD0000004641544641543332
:1059D000F0B5154D0022134605EB021426685EB1A2
:1059E0000768BE4209D166688768BE4205D1A468CF
:1059F0004669B44204D000E00123521C022AEBD3D2
:105A0000022A01D069B904E04BB9022907D012205B
:105A1000F0BD05EB02108089B0F5807F01D0002039
:105A2000F0BD1020F0BD00005814002430B5064B26
:105A30000024214603EB01121568854200D1146051
:105A4000491C0229F6D330BD58140024C26A490A01
:105A500000684089B1FBF0F0121D02CA19B18842FA
:105A600003D3401AF8E700207047116808447047D4
:105A70004269891E921E8A4201D800207047826ABC
:105A8000408901FB002070472DE9F04105680F00B7
:105A9000804606D000F0DCFE022809D20120BDE8D5
:105AA000F081EE6816B16869B04207D8012605E0BA
:105AB000411CF4D069698142F1D83E463446686998
:105AC000641CA04203D8022E4FF002040AD32146E0
:105AD000404600F0BDFE38B10128E0D0411CDED0C8
